:04000000CCEF07F04A
:08000800046ED8CF05F0E0CF33
:1000100006F00001E9CF0CF0EACF07F0E1CF08F0DD
:10002000E2CF09F0D9CF0AF0DACF0BF0F3CF12F01C
:10003000F4CF13F0FACF14F000C00EF001C00FF0AF
:1000400002C010F003C011F0F2A62AEF00F0F2B0E7
:1000500034EF01F09DAA30EF00F09EBA6FEF01F08F
:100060000EC000F00FC001F010C002F011C003F08C
:100070000CC0E9FF07C0EAFF078E08C0E1FF09C016
:10008000E2FF0AC0D9FF0BC0DAFF12C0F3FF13C0B2
:10009000F4FF14C0FAFF045006C0E0FF05C0D8FF0B
:1000A0001000F2CF0DF0F29EF76ABC0FF66E000E54
:1000B000F7220900F5500DBEF28E1200280C010641
:1000C0000C005374617274000F0E956E838A0000E9
:1000D0008388000083500F0B496E8398000083884B
:1000E00000D083500F0B486E8398000E956E4938F0
:1000F000006EF00E001600504810016E12004950BC
:100100000F0B006EF00E83140010836E00008388C6
:1001100000D000D083981200839CD6DF01C048F045
:1001200001BEFBD746A0839C46B0838C0000839A17
:10013000000083984738486E0F0E481648C049F0B3
:10014000DEDF47500F0B486E496ED9DF1200EA6AB6
:10015000420EE96EEF500DE0020E016E006A002EB5
:10016000FED7012EFBD7970E006E002EFED7EF2E86
:10017000F3D71200432C01D003D0400E446E01D0BF
:10018000446A010E425C442644508009456E466A2A
:10019000476EC2DF120041500C0A05E0060A0BE070
:1001A000020A0FE013D0466A010E476EB5DF020E59
:1001B000426ECDDF10D0010E426E020E436EDADFCA
:1001C0000AD0466A100E476EA7DF05D0010E466EB4
:1001D00041C047F0A1DF12000900F5520CE0F6CF54
:1001E0003FF0F7CF40F0F5CF41F0D5DF3FC0F6FF4D
:1001F00040C0F7FFF1D712000900F5520DE0F6CF2D
:100200003FF0F7CF40F0F5509EA8FED7AD6E3FC04F
:10021000F6FF40C0F7FFF0D745EF01F0899A0E0EC8
:100220003F6EFA0E426E93DF3F2EFBD7898A120093
:100230008A828A94898A81BA04D0640E426E87DFEA
:10024000FAD7C00EF66E000EF76EC6DFC20EF66E5F
:10025000000EF76EC1DF22A002D08A8403D081A0F5
:1002600001D0DCDF8A92120081AE11D0AE0EF66EA4
:10027000020EF76EB1DFB00EF66E020EF76EACDF57
:10028000B60EF66E020EF76EB7D7236A246A81ACFB
:100290000BD0BE0EF66E020EF76E9EDFC00EF66E2F
:1002A000020EF76E99DFC4DFF29030EF00F00C0021
:1002B000526573657400372E3030303000000C000A
:1002C00053746F7000009EAAFED7ABCF17F0AECF6D
:1002D00001F017A202D0AB98AB8872EF01F09EAA92
:1002E0000CD0F1D701C01CF0040E426E30DF1C5060
:1002F000310801E19DDF300E1C6E9E9A30EF00F058
:100300000C0057656C6C636F6D65203B29000C0019
:10031000706573616461733A202564000C006C6938
:100320007669616E61733A20256400000C00746F79
:1003300074616C3A202564000C0062616E64612077
:1003400031000C0073656E73616E646F2E2E2E008B
:100350000C0063616A6120706573616461006361B0
:100360006A61206C697669616E610000000E956EAD
:10037000839C839A8398166AF2BE168EF29E0F0EA5
:10038000426EE5DE16BEF28E010E256E2550030884
:1003900014E3166AF2BE168EF29E030E496EAFDEAD
:1003A00016BEF28E166AF2BE168EF29E050E426ED2
:1003B000CEDE16BEF28E252AE9D7166AF2BE168E5A
:1003C000F29E020E496E9BDE16BEF28E256A255005
:1003D000030814E3036A2550F2CF26F0F29E61DE93
:1003E00026BEF28E266E166AF2BE168EF29E466A01
:1003F000476E92DE16BEF28E252AE9D7F3EF07F09C
:10040000000E956EE10E936E8A92010E926E898AAD
:100410008996000E946E8B6AC150C00B0E09C16E96
:10042000C050C00B0709C06EC08EC280000E016EA6
:10043000C250C30B0110C26E12EF08F00900F6CFD4
:1004400027F0F7CF28F0166AF2BE168EF29EF5CF8F
:1004500041F0A1DE16BEF28E27C0F6FF28C0F7FFDE
:10046000262EECD712002D50016A2C5C03E22CC022
:1004700000F00CD0006A080E2E6E2C3600362D507F
:10048000005CD8B0006E01362E2EF7D71200200E79
:1004900027A8300E286E26C000F026AE08D0001E19
:1004A000002A00C026F02D0E286E278E27800150CE
:1004B00026C02CF0640E2D6ED6DF00C026F0300E64
:1004C0000124296E26C02CF00A0E2D6ECCDF300ED2
:1004D00000242B6E300E01242A6E28C000F0300E4E
:1004E000295C04E0278227BE278412D028C029F087
:1004F000200E286E300E2A5C04E0278027BE27825B
:1005000007D0D8A4278004E129C02AF0200E296E44
:1005100027B405D027B20CD027B013D01BD0166A51
:10052000F2BE168EF29E28C041F035DE16BEF28E67
:10053000166AF2BE168EF29E29C041F02CDE16BE5F
:10054000F28E166AF2BE168EF29E2AC041F023DEAB
:1005500016BEF28E166AF2BE168EF29E2BC041F0C7
:100560001ADE16BEF28E12008E0E006E26C001F04C
:1005700025C002F0036A015209E102C001F0026ADB
:10058000080E005E015202E1006A08D0D89001BE58
:1005900004D0023601360006F9D7019E53EF03F06E
:1005A0003250D8B471D0006E3650D8B46DD0002619
:1005B00004E3810E002668E204D07F0E005E64E34F
:1005C00063E033C03AF037503A1A338E378E3550E5
:1005D0003902F4CF3CF034503802F4CF03F0F3CFBB
:1005E0003BF03902F3503C26F4503B22000E03222C
:1005F00035503802F3503C26F4503B22000E026A7C
:100600000322022233503902F3503B26F4500322D6
:10061000000E022233503802F3500326F450022217
:10062000000E016A012235503702F3503B26F45088
:100630000322000E0222012234503702F350032617
:10064000F4500222000E012233503702F3500226EA
:10065000F4500122002A01BE05D03B360336023693
:1006600001360006000E3BAE0AD0032A0222012208
:10067000015005E1025003E1035001E1002A3ABEB6
:10068000018E3AAE019E04D0006A016A026A036AD2
:100690001200C282C2B2FED7C4CF03F0C3CF25F08E
:1006A000C4CF26F061D71BC035F01AC034F019C092
:1006B00033F018C032F003C039F002C038F001C086
:1006C00037F000C036F06CDF12002AC031F02E5037
:1006D000311A31AE05D0D894D8902ABED8802FD008
:1006E0002AC031F02DC032F02950325E06E031AE22
:1006F00026D0D850010AD86E22D02EC032F02A500F
:10070000325E06E031AE1BD0D850010AD86E17D049
:100710002FC032F02B50325E06E031AE10D0D850F0
:10072000010AD86E0CD030C032F02C50325E06E098
:1007300031AE05D0D850010AD86E01D0D890120041
:10074000800ED8B22C1A316A326A28C030F02C5090
:10075000301A2750D8B4DCD02F6E006E2B50D8B48E
:10076000E0D02F5ED8B481D03DE32CC035F0358E7B
:100770002DC034F02EC033F0326AD8903532343286
:10078000333232322F2EF8D730AE03D03180DDD065
:1007900031902F903188EA6A2A0EE96EE9D03198BB
:1007A00030BE0AD02FA013D0353234323332323239
:1007B000002AD8B4C5D00BD035BE0CD0D890323674
:1007C0003336343635360006D8B4BAD0F5D7318C46
:1007D0006BD0319C28C030F028AE02D0358EA9D025
:1007E000359EA7D02BC02FF02BC000F027502F5ED6
:1007F00028C035F0358E29C034F02AC033F0326A73
:10080000D89035323432333232322F2EF8D730AEE0
:1008100003D031829AD031922F90318AEA6A2E0E1B
:10082000E96EA6D0319A30BE0AD02FA013D035324F
:10083000343233323232002AD8B482D00BD035BEB3
:100840000CD0D89032363336343635360006D8B42C
:1008500077D0F5D7318E28D0319E2CC030F02CAE19
:1008600002D0358E66D0359E64D02CC035F0358EE2
:100870002DC034F02EC033F030AE04D0359E31841C
:1008800064D03194326A2F90EA6A2A0EE96E70D0F1
:1008900030BE1CD028C030F02FA006D03532343204
:1008A00033323232002A4CE032AE0BD0332A09E127
:1008B000342A07E1352A05E1353234323332002A51
:1008C0003FE031BC86D731BEC7D71CD0800E351A69
:1008D00035AE04D03AD02CC030F00AD028C030F069
:1008E000355206E1345204E1335202E1006A21D06C
:1008F00035BE08D0D8903236333634363536002EF1
:10090000F7D71ED030AE02D0358E13D0359E11D021
:100910002BC000F02CC035F02DC034F02EC033F0C9
:1009200008D027C000F028C035F029C034F02AC014
:1009300033F035C001F034C002F033C003F034D0DE
:10094000006A016A026A036A2FD0326A331E341EBB
:10095000351E321E322A05E1332A03E1342A01E131
:10096000352A31B015D731B256D731B48AD7B3D77B
:10097000EF50332605E3342A03E1352AD8B42F801B
:10098000ED52EF50342603E3352AD8B42F80ED52D0
:10099000EF50EFBE01D0800A3526D8B02F8031B895
:1009A000FED631BA3FD774D721EF09F02550D8B41D
:1009B000A5D0316E2950D8B4A1D0315E05E37F0EA9
:1009C0003126D8B09BD006D0810E315ED8A096D00B
:1009D000D8B494D031C000F0016A026A036A306A68
:1009E00026C02FF02F8E27C02EF028C02DF0190E14
:1009F000316E2C502D5E0DE2010E2E5E0AE22F5E4E
:100A000008E2305E06E2302A2F2A2E2A2C502D26AC
:100A100028D02B502E5E12E2010E2F5E0FE2305EC8
:100A20000DE2302A2F2A2B502E262C502D2619E38A
:100A30002E2A17E12F2A15E1302A13D02A508009D7
:100A40002F5E0EE2010E305E0BE2302A2A50800942
:100A50002F262B502E26E9E32F2AE7E1302AE5D76F
:100A60000380312E01D00BD0D8902D362E362F3664
:100A70003036D8900336023601363236BAD732A035
:100A800006D0D890013202320332323202D0000650
:100A900035E032BE1ED0D8902D362E362F36303669
:100AA0002C502D5E07E2010E2E5E04E22F5E02E264
:100AB000305E1AE32B502E5E05E2010E2F5E02E23D
:100AC000305E12E32A5080092F5E03E2010E305E91
:100AD0000BE3032A09E1022A07E1012A05E1002AC2
:100AE0000DE001320232033226C031F02A50311AB1
:100AF00031AE02D0018E06D0019E04D0006A016A98
:100B0000026A036A3FEF09F03250B608326E036A98
:100B100033C036F0338ED89033323432353203322C
:100B2000023201320032322EF6D736AE0BD0001E22
:100B3000011E021E031E002AD8B4012AD8B4022ABC
:100B4000D8B4032A12EF06F0D8B203D0EA6A3A0EFC
:100B5000E96E006A016A026A036A3A6A3B6A3C6AA1
:100B60003D6A39503810371036102CE0200E3E6E9A
:100B7000D89032363336343635363A363B363C3614
:100B80003D3639503D5C08E138503C5C05E137505A
:100B90003B5C02E136503A5C0FE336503A5E375028
:100BA000D8A0373C3B5E3850D8A0383C3C5E39502A
:100BB000D8A0393C3D5ED880003601360236033677
:100BC0003E2ED6D73AC0EFFF3BC0ECFF3CC0ECFF57
:100BD0003DC0ECFF1200E9502A6E29502C6E19E03E
:100BE00028C035F027C034F026C033F025C032F0DD
:100BF000396A386A200E376E820E366ED1DC03C039
:100C000028F002C027F001C026F000C025F02C2EED
:100C1000E7D728C035F027C034F026C033F025C010
:100C200032F072D703C028F002C027F001C026F0CE
:100C300000C025F028AE0DD02A062A8A251E261EC1
:100C4000271E281E252AD8B4262AD8B4272AD8B485
:100C5000282A3B0E316E9A0E306ECA0E2F6E2E6A07
:100C60000A0E2C6E2950D8B42A2AD882EA6A250E98
:100C7000E96E28C035F027C034F026C033F025C017
:100C800032F031C039F030C038F02FC037F02EC00C
:100C900036F05ADF015000520FE129282C5C0CE09D
:100CA0002A500CE00F0B2C5C01E03BE22ABE39D04D
:100CB0002ABC04D0200E30D0200E2A162AAA0DD02D
:100CC0002A9A2950D8A42A0600502A6E2D0E9EA8D2
:100CD000FED7AD6E2A50006E2A6A29502C5C0BE1BB
:100CE00000502A6E2E0E9EA8FED7AD6E2A50006EC2
:100CF000200E2A16000E300E2AAA0ED02A9A29504B
:100D0000D8A42A0600502A6E2D0E9EA8FED7AD6EDE
:100D10002A50006E2A6A300E002600509EA8FED788
:100D2000AD6ED89231C035F030C034F02FC033F002
:100D30002EC032F0396A386A376A0A0E366E04DF1E
:100D400003C031F002C030F001C02FF000C02EF01F
:100D50002C2E8BD754EF09F02950070B006E293049
:100D6000016E013201321F0E011601502B24E96E73
:100D7000000E2C20EA6E016A012A002A01D00136F9
:100D8000002EFDD72A5203E00150EF1203D0011EBE
:100D90000150EF161200090E2C5E0BE3EA6A2C0ECE
:100DA000E96ED890EF32EF5004E001D00000EF2E52
:100DB000FDD712001D6A28501D5C32E225C029F0C3
:100DC000010E2A6E0F0E2C6E890E2B6EC5DF27C00A
:100DD00029F0292A2906D8B403D02C68DCDFFAD7F9
:100DE00026C02CF0D8DF25C029F02A6A0F0E2C6E01
:100DF000890E2B6EB1DF200ED8802654296E4E0E40
:100E000027542A6E2AC02BF02B2A2B06D8B403D0E5
:100E10002C68C1DFFAD729C02CF0BDDF1D2ACBD743
:100E20001200898289941D6A1D50270818E389865B
:100E3000166AF2BE168EF29E090E426EA7EC00F004
:100E400016BEF28E8996166AF2BE168EF29E0B0EB2
:100E5000426EA7EC00F016BEF28E1D2AE5D7CD0E2D
:100E60002C6ECC0E2B6E0C0E2A6E800E296E21C0BD
:100E700030F020C02FF01FC02EF01EC02DF025DC5A
:100E800001E21AE181B017D08986166AF2BE168E89
:100E9000F29E090E426EA7EC00F016BEF28E899605
:100EA000166AF2BE168EF29E0B0E426EA7EC00F092
:100EB00016BEF28EE7D719D081B017D08986166A90
:100EC000F2BE168EF29E080E426EA7EC00F016BE21
:100ED000F28E8996166AF2BE168EF29E0C0E426E45
:100EE000A7EC00F016BEF28EE7D7BDEF09F08992AD
:100EF00089841D6A1D50270818E38986166AF2BE88
:100F0000168EF29E0C0E426EA7EC00F016BEF28E0C
:100F10008996166AF2BE168EF29E080E426EA7ECF5
:100F200000F016BEF28E1D2AE5D71D6A1D504F082F
:100F300018E38986166AF2BE168EF29E050E426E80
:100F4000A7EC00F016BEF28E8996166AF2BE168ED7
:100F5000F29E0F0E426EA7EC00F016BEF28E1D2A16
:100F6000E5D781B017D08986166AF2BE168EF29E3A
:100F7000030E426EA7EC00F016BEF28E8996166A3A
:100F8000F2BE168EF29E110E426EA7EC00F016BE57
:100F9000F28EE7D70DEF0AF0F86AD09E078E700E3A
:100FA000D36ED350176AB8960C0EAF6EA20EAC6E0D
:100FB000900EAB6E0A0E1B6E280E1A6E200E196E66
:100FC000770E186E300E1C6E216A206A1F6A1E6A28
:100FD0002290236A246AC150C00B0F09C16E070E0C
:100FE000B46EB6EF01F0000EF66E030EF76E166AE1
:100FF000F2BE168EF29EECEC00F016BEF28E020EE1
:10100000F66E030EF76E166AF2BE168EF29EECECCA
:1010100000F016BEF28E9D8AF286C00EF212F18C9E
:1010200000EF02F00E0EF66E030EF76E166AF2BEB9
:10103000168EF29EECEC00F016BEF28E100EF66EDE
:10104000030EF76E090E266E1EEC02F024C026F089
:10105000180E276E47EC02F0040E256E166AF2BEDB
:10106000168EF29EFA0E426EA7EC00F016BEF28EBD
:10107000252EF4D71C0EF66E030EF76E166AF2BE1E
:10108000168EF29EECEC00F016BEF28E1E0EF66E80
:10109000030EF76E0A0E266E1EEC02F023C026F039
:1010A000180E276E47EC02F0040E256E166AF2BE8B
:1010B000168EF29EFA0E426EA7EC00F016BEF28E6D
:1010C000252EF4D72C0EF66E030EF76E166AF2BEBE
:1010D000168EF29EECEC00F016BEF28E2350242405
:1010E000256E2E0EF66E030EF76E070E266E1EECA4
:1010F00002F025C026F0180E276E47EC02F0040E11
:10110000256E166AF2BE168EF29EFA0E426EA7EC9D
:1011100000F016BEF28E252EF4D7380EF66E030EB2
:10112000F76E166AF2BE168EF29EECEC00F016BE5A
:10113000F28E3A0EF66E030EF76E166AF2BE168E39
:10114000F29EECEC00F016BEF28E22808A968A980F
:101150008A84166AF2BE168EF29EC80E426EA7EC04
:1011600000F016BEF28E49EC03F003C028F002C076
:1011700027F001C026F000C025F02C6A2B6A2A6AED
:101180007F0E296E03C030F002C02FF001C02EF098
:1011900000C02DF065EC03F001E301D0DAD7420E78
:1011A000F66E030EF76E166AF2BE168EF29EECEC29
:1011B00000F016BEF28E440EF66E030EF76E166A3F
:1011C000F2BE168EF29EECEC00F016BEF28E8A9401
:1011D0000C0E256E166AF2BE168EF29EFA0E426E46
:1011E000A7EC00F016BEF28E252EF4D71D6A1D5016
:1011F000060835E3020E256E166AF2BE168EF29EC2
:10120000960E426EA7EC00F016BEF28E252EF4D795
:1012100049EC03F0EACF26F0E9CF25F0D89221C0BF
:101220002AF020C029F01FC028F01EC027F003C0FC
:101230002EF002C02DF001C02CF000C02BF0A0EF6A
:1012400003F026C0EAFF25C0E9FF03C021F002C079
:1012500020F001C01FF000C01EF01D2AC8D721C019
:1012600028F020C027F01FC026F01EC025F02C6AF1
:101270002B6A600E2A6E810E296ED6EF04F003C031
:1012800021F002C020F001C01FF000C01EF0890E46
:10129000E96E21C028F020C027F01FC026F01EC034
:1012A00025F0040E296E97D4500EF66E030EF76EDD
:1012B000166AF2BE168EF29EECEC00F016BEF28EAE
:1012C000CD0E2C6ECC0E2B6E0C0E2A6E800E296E5F
:1012D00021C030F020C02FF01FC02EF01EC02DF016
:1012E00065EC03F001E210E1520EF66E030EF76EAC
:1012F000166AF2BE168EF29EECEC00F016BEF28E6E
:101300008A86010E24260FD05E0EF66E030EF76E4F
:10131000166AF2BE168EF29EECEC00F016BEF28E4D
:101320008A88010E2326020E256E166AF2BE168EDC
:10133000F29EFA0E426EA7EC00F016BEF28E252E3B
:10134000F4D7120E256E050E276EDC0E266E0F0EDC
:10135000286E30DD120E256E010E276EF40E266EFD
:101360000F0E286E27DD2290166AF2BE168EF29EB0
:101370000EEC01F016BEF28E54D5020E256E166AE2
:10138000F2BE168EF29EFA0E426EA7EC00F016BE6A
:10139000F28E252EF4D7CD0E2C6ECC0E2B6E0C0EAD
:1013A0002A6E800E296E21C030F020C02FF01FC0A1
:1013B0002EF01EC02DF065EC03F001E213E1110EDA
:1013C000256E010E276EF40E266E3C0E286EF2DCA2
:1013D000110E256E090E276EC40E266E3C0E286E69
:1013E000E9DC12D0100E256E010E276EF40E266E6B
:1013F0003C0E286EDFDC100E256E090E276EC40E23
:10140000266E3C0E286ED6DC166AF2BE168EF29E52
:0E1410000EEC01F016BEF28E6AD504D6030073
:020000040030CA
:0E00000027C83E1E0087A1000FC00FE00F4072
:00000001FF
;PIC18F4550
;CRC=318B  CREATED="16-jun.-18 20:20"
