:0400000073EF02F0A8
:08000800046ED8CF05F0E0CF33
:1000100006F00001E9CF0CF0EACF07F0E1CF08F0DD
:10002000E2CF09F0D9CF0AF0DACF0BF0F3CF12F01C
:10003000F4CF13F0FACF14F000C00EF001C00FF0AF
:1000400002C010F003C011F09DAA2AEF00F09EBA82
:100050005EEF00F00EC000F00FC001F010C002F023
:1000600011C003F00CC0E9FF07C0EAFF078E08C00B
:10007000E1FF09C0E2FF0AC0D9FF0BC0DAFF12C0DE
:10008000F3FF13C0F4FF14C0FAFF045006C0E0FFF2
:1000900005C0D8FF1000EA6A3E0EE96EEF500DE091
:1000A000020E016E006A002EFED7012EFBD7970EBE
:1000B000006E002EFED7EF2EF3D712009EAA07D0B7
:1000C0009EAAFED7AECF1BF0040E3E6EE4DF9E9AD2
:1000D0002AEF00F0000E936E010E926EC150C00B1D
:1000E0000E09C16EC050C00B0709C06EC08EC28021
:1000F00093EF02F08E0E006E25C001F024C002F0D6
:10010000036A015209E102C001F0026A080E005EB2
:10011000015202E1006A08D0D89001BE04D0023634
:1001200001360006F9D7019EB6EF02F03150D8B47F
:1001300071D0006E3550D8B46DD0002604E3810E26
:10014000002668E204D07F0E005E64E363E032C004
:1001500039F03650391A328E368E34503802F4CF98
:100160003BF033503702F4CF03F0F3CF3AF03802CC
:10017000F3503B26F4503A22000E0322345037024B
:10018000F3503B26F4503A22000E026A0322022268
:1001900032503802F3503A26F4500322000E022265
:1001A00032503702F3500326F4500222000E016A47
:1001B000012234503602F3503A26F4500322000E46
:1001C0000222012233503602F3500326F450022259
:1001D000000E012232503602F3500226F450012262
:1001E000002A01BE05D03A36033602360136000633
:1001F000000E3AAE0AD0032A02220122015005E184
:10020000025003E1035001E1002A39BE018E39AEEC
:10021000019E04D0006A016A026A036A120025C0C6
:100220002CF029502C1A2CAE05D0D894D89025BE8D
:10023000D8802FD025C02CF028C02DF024502D5E62
:1002400006E02CAE26D0D850010AD86E22D029C0A4
:100250002DF025502D5E06E02CAE1BD0D850010AA3
:10026000D86E17D02AC02DF026502D5E06E02CAE99
:1002700010D0D850010AD86E0CD02BC02DF02750CA
:100280002D5E06E02CAE05D0D850010AD86E01D004
:10029000D890DDEF02F03150B608316E036A32C0FB
:1002A00035F0328ED8903232333234320332023269
:1002B00001320032312EF6D735AE0BD0001E011EB2
:1002C000021E031E002AD8B4012AD8B4022AD8B4C8
:1002D000032AD9EF01F0D8B203D0EA6A390EE96EE9
:1002E000006A016A026A036A396A3A6A3B6A3C6ACE
:1002F00038503710361035102CE0200E3D6ED89057
:10030000313632363336343639363A363B363C3689
:1003100038503C5C08E137503B5C05E136503A5CB4
:1003200002E13550395C0FE33550395E3650D8A0C4
:10033000363C3A5E3750D8A0373C3B5E3850D8A0A8
:10034000383C3C5ED88000360136023603363D2EFE
:10035000D6D739C0EFFF3AC0ECFF3BC0ECFF3CC042
:10036000ECFF1200E950296E28502B6E19E027C0CF
:1003700034F026C033F025C032F024C031F0386AA2
:10038000376A200E366E820E356ED0DE03C027F03F
:1003900002C026F001C025F000C024F02B2EE7D7C4
:1003A00027C034F026C033F025C032F024C031F02D
:1003B00072D703C027F002C026F001C025F000C0AC
:1003C00024F027AE0DD02906298A241E251E261EBC
:1003D000271E242AD8B4252AD8B4262AD8B4272AF6
:1003E0003B0E306E9A0E2F6ECA0E2E6E2D6A0A0EBE
:1003F0002B6E2850D8B4292AD882EA6A240EE96ED6
:1004000027C034F026C033F025C032F024C031F0CC
:1004100030C038F02FC037F02EC036F02DC035F088
:100420005ADF015000520FE128282B5C0CE02950C4
:100430000CE00F0B2B5C01E03BE229BE39D029BC5C
:1004400004D0200E30D0200E291629AA0DD0299ACA
:100450002850D8A429060050296E2D0E9EA8FED73C
:10046000AD6E2950006E296A28502B5C0BE10050BC
:10047000296E2E0E9EA8FED7AD6E2950006E200E5E
:100480002916000E300E29AA0ED0299A2850D8A479
:1004900029060050296E2D0E9EA8FED7AD6E29505C
:1004A000006E296A300E002600509EA8FED7AD6E61
:1004B000D89230C034F02FC033F02EC032F02DC0AF
:1004C00031F0386A376A366A0A0E356E04DF03C0C7
:1004D00030F002C02FF001C02EF000C02DF02B2E06
:1004E0008BD7FBEF02F0F86AD09E078E700ED36EAA
:1004F000D350B8960C0EAF6EA20EAC6E900EAB6ED3
:100500000A0E1A6E280E196E200E186E770E176ED0
:100510001B6AC150C00B0F09C16E070EB46E9D8AD5
:10052000C00EF212D7D51D6A1C6A216A206A1F6AA2
:100530001E6A000E016EC250C30B0110C26E236A08
:10054000226A166AF2BE168EF29E050E3E6EA3DD7C
:1005500016BEF28EC282C2B2FED7C3CF1CF0C4CF89
:100560001DF01DC025F01CC024F0C4D51AC034F005
:1005700019C033F018C032F017C031F003C038F0A2
:1005800002C037F001C036F000C035F0CFDD03C047
:1005900021F002C020F001C01FF000C01EF0276A49
:1005A000266A256A7F0E246E21C02BF020C02AF017
:1005B0001FC029F01EC028F032D602E38A8201D083
:1005C0008A921B50310802E18A8401D08A94225019
:1005D000C80812E1235210E1236A226A890EE96EEB
:1005E00021C027F020C026F01FC025F01EC024F037
:1005F000040E286EB7D68A72222AD8B4232AA1D72D
:020600000300F5
:020000040030CA
:0E00000027C83E1E008781000FC00FE00F4092
:00000001FF
;PIC18F2550
;CRC=B608  CREATED="23-nov.-17 11:45"
