:0400000094EF05F084
:08000800046ED8CF05F0E0CF33
:1000100006F00001E9CF0CF0EACF07F0E1CF08F0DD
:10002000E2CF09F0D9CF0AF0DACF0BF0F3CF12F01C
:10003000F4CF13F0FACF14F000C00EF001C00FF0AF
:1000400002C010F003C011F0F2A62AEF00F0F2B0E7
:1000500090EF00F09DAA30EF00F09EBAADEF00F0F7
:100060000EC000F00FC001F010C002F011C003F08C
:100070000CC0E9FF07C0EAFF078E08C0E1FF09C016
:10008000E2FF0AC0D9FF0BC0DAFF12C0F3FF13C0B2
:10009000F4FF14C0FAFF045006C0E0FF05C0D8FF0B
:1000A00010000900F5520DE0F6CF3DF0F7CF3EF01D
:1000B000F5509EA8FED7AD6E3DC0F6FF3EC0F7FFDF
:1000C000F0D797EF00F0EA6A3E0EE96EEF500DE0D0
:1000D000020E016E006A002EFED7012EFBD7970E8E
:1000E000006E002EFED7EF2EF3D712008A828A947C
:1000F000898A81BA04D0640E3E6EE5DFFAD722A069
:1001000002D08A840BD081A009D0899A0E0E3D6E50
:10011000FA0E3E6ED8DF3D2EFBD7898A8A921200F6
:1001200081AE05D03A0EF66E010EF76EBAD781ACED
:1001300001D0DCDFF29030EF00F0372E303030307D
:1001400000009EAAFED7ABCF17F0AECF01F017A2EA
:1001500002D0AB98AB88B0EF00F09EAA0CD0F1D7DC
:1001600001C01CF0040E3E6EAEDF1C50310801E1F0
:10017000BDDF300E1C6E9E9A30EF00F0E10E936EE4
:100180008A92010E926E898A8996000E946E8B6A0D
:10019000C150C00B0E09C16EC050C00B0709C06E24
:1001A000C08EC280BFEF05F08E0E006E24C001F03D
:1001B00023C002F0036A015209E102C001F0026AA1
:1001C000080E005E015202E1006A08D0D89001BE1C
:1001D00004D0023601360006F9D7019E73EF01F014
:1001E0003050D8B471D0006E3450D8B46DD00026E1
:1001F00004E3810E002668E204D07F0E005E64E313
:1002000063E031C038F03550381A318E358E3350B6
:100210003702F4CF3AF032503602F4CF03F0F3CF86
:1002200039F03702F3503A26F4503922000E0322F7
:1002300033503602F3503A26F4503922000E026A47
:100240000322022231503702F3503926F4500322A0
:10025000000E022231503602F3500326F4500222DF
:10026000000E016A012233503502F3503926F45052
:100270000322000E0222012232503502F3500326DF
:10028000F4500222000E012231503502F3500226B2
:10029000F4500122002A01BE05D039360336023659
:1002A00001360006000E39AE0AD0032A02220122CE
:1002B000015005E1025003E1035001E1002A38BE7C
:1002C000018E38AE019E04D0006A016A026A036A98
:1002D0001200C282C2B2FED7C4CF03F0C3CF23F054
:1002E000C4CF24F061D71BC033F01AC032F019C05C
:1002F00031F018C030F003C037F002C036F001C052
:1003000035F000C034F06CDF120028C02FF02C5004
:100310002F1A2FAE05D0D894D89028BED8802FD0D1
:1003200028C02FF02BC030F02750305E06E02FAEF3
:1003300026D0D850010AD86E22D02CC030F02850D8
:10034000305E06E02FAE1BD0D850010AD86E17D011
:100350002DC030F02950305E06E02FAE10D0D850BE
:10036000010AD86E0CD02EC030F02A50305E06E064
:100370002FAE05D0D850010AD86E01D0D890120007
:10038000800ED8B22A1A2F6A306A26C02EF02A5060
:100390002E1A2550D8B4DCD02D6E006E2950D8B45A
:1003A000E0D02D5ED8B481D03DE32AC033F0338E47
:1003B0002BC032F02CC031F0306AD8903332323258
:1003C000313230322D2EF8D72EAE03D02F80DDD033
:1003D0002F902D902F88EA6A280EE96EE9D02F9889
:1003E0002EBE0AD02DA013D0333232323132303209
:1003F000002AD8B4C5D00BD033BE0CD0D89030363C
:100400003136323633360006D8B4BAD0F5D72F8C11
:100410006BD02F9C26C02EF026AE02D0338EA9D0F2
:10042000339EA7D029C02DF029C000F025502D5EA5
:1004300026C033F0338E27C032F028C031F0306A46
:10044000D89033323232313230322D2EF8D72EAEB0
:1004500003D02F829AD02F922D902F8AEA6A2C0EE9
:10046000E96EA6D02F9A2EBE0AD02DA013D033321B
:10047000323231323032002AD8B482D00BD033BE7F
:100480000CD0D89030363136323633360006D8B4F8
:1004900077D0F5D72F8E28D02F9E2AC02EF02AAEE7
:1004A00002D0338E66D0339E64D02AC033F0338EB0
:1004B0002BC032F02CC031F02EAE04D0339E2F84EE
:1004C00064D02F94306A2D90EA6A280EE96E70D0BD
:1004D0002EBE1CD026C02EF02DA006D033323232D4
:1004E00031323032002A4CE030AE0BD0312A09E1F3
:1004F000322A07E1332A05E1333232323132002A1F
:100500003FE02FBC86D72FBEC7D71CD0800E331A32
:1005100033AE04D03AD02AC02EF00AD026C02EF036
:10052000335206E1325204E1315202E1006A21D035
:1005300033BE08D0D8903036313632363336002EBE
:10054000F7D71ED02EAE02D0338E13D0339E11D0EB
:1005500029C000F02AC033F02BC032F02CC031F09B
:1005600008D025C000F026C033F027C032F028C0E4
:1005700031F033C001F032C002F031C003F034D0AA
:10058000006A016A026A036A2FD0306A311E321E85
:10059000331E301E302A05E1312A03E1322A01E1FF
:1005A000332A2FB015D72FB256D72FB48AD7B3D747
:1005B000EF50312605E3322A03E1332AD8B42D80E7
:1005C000ED52EF50322603E3332AD8B42D80ED529A
:1005D000EF50EFBE01D0800A3326D8B02D802FB85F
:1005E000FED62FBA3FD774D729EF06F02350D8B4E0
:1005F000A5D02F6E2750D8B4A1D02F5E05E37F0E73
:100600002F26D8B09BD006D0810E2F5ED8A096D0D2
:10061000D8B494D02FC000F0016A026A036A2E6A2F
:1006200024C02DF02D8E25C02CF026C02BF0190EE5
:100630002F6E2A502B5E0DE2010E2C5E0AE22D5E1B
:1006400008E22E5E06E22E2A2D2A2C2A2A502B267C
:1006500028D029502C5E12E2010E2D5E0FE22E5E94
:100660000DE22E2A2D2A29502C262A502B2619E35A
:100670002C2A17E12D2A15E12E2A13D028508009A3
:100680002D5E0EE2010E2E5E0BE22E2A285080090E
:100690002D2629502C26E9E32D2AE7E12E2AE5D73D
:1006A00003802F2E01D00BD0D8902B362C362D3630
:1006B0002E36D8900336023601363036BAD730A0FF
:1006C00006D0D890013202320332303202D0000616
:1006D00035E030BE1ED0D8902B362C362D362E3637
:1006E0002A502B5E07E2010E2C5E04E22D5E02E230
:1006F0002E5E1AE329502C5E05E2010E2D5E02E209
:100700002E5E12E3285080092D5E03E2010E2E5E5C
:100710000BE3032A09E1022A07E1012A05E1002A85
:100720000DE001320232033224C02FF028502F1A7C
:100730002FAE02D0018E06D0019E04D0006A016A5D
:10074000026A036A46EF06F03050B608306E036A5C
:1007500031C034F0318ED8903132323233320332FC
:10076000023201320032302EF6D734AE0BD0001EEA
:10077000011E021E031E002AD8B4012AD8B4022A80
:10078000D8B4032A32EF04F0D8B203D0EA6A380EA4
:10079000E96E006A016A026A036A386A396A3A6A6B
:1007A0003B6A37503610351034102CE0200E3C6E6A
:1007B000D8903036313632363336383639363A36E6
:1007C0003B3637503B5C08E136503A5C05E135502A
:1007D000395C02E13450385C0FE33450385E3550F8
:1007E000D8A0353C395E3650D8A0363C3A5E3750FA
:1007F000D8A0373C3B5ED88000360136023603363F
:100800003C2ED6D738C0EFFF39C0ECFF3AC0ECFF22
:100810003BC0ECFF1200E950286E27502A6E19E009
:1008200026C033F025C032F024C031F023C030F0B0
:10083000376A366A200E356E820E346ED1DC03C004
:1008400026F002C025F001C024F000C023F02A2EBB
:10085000E7D726C033F025C032F024C031F023C0E2
:1008600030F072D703C026F002C025F001C024F09A
:1008700000C023F026AE0DD02806288A231E241E91
:10088000251E261E232AD8B4242AD8B4252AD8B453
:10089000262A3B0E2F6E9A0E2E6ECA0E2D6E2C6AD5
:1008A0000A0E2A6E2750D8B4282AD882EA6A230E64
:1008B000E96E26C033F025C032F024C031F023C0E9
:1008C00030F02FC037F02EC036F02DC035F02CC0E0
:1008D00034F05ADF015000520FE127282A5C0CE067
:1008E00028500CE00F0B2A5C01E03BE228BE39D017
:1008F00028BC04D0200E30D0200E281628AA0DD0F7
:10090000289A2750D8A428060050286E2D0E9EA89D
:10091000FED7AD6E2850006E286A27502A5C0BE186
:100920000050286E2E0E9EA8FED7AD6E2850006E89
:10093000200E2816000E300E28AA0ED0289A275016
:10094000D8A428060050286E2D0E9EA8FED7AD6EA6
:100950002850006E286A300E002600509EA8FED750
:10096000AD6ED8922FC033F02EC032F02DC031F0D2
:100970002CC030F0376A366A356A0A0E346E04DFEE
:1009800003C02FF002C02EF001C02DF000C02CF0EB
:100990002A2E8BD75BEF06F0090E245E0BE3EA6A82
:1009A000240EE96ED890EF32EF5004E001D0000041
:1009B000EF2EFDD71200898289941D6A1D502708E9
:1009C00018E38986166AF2BE168EF29E090E3E6EF6
:1009D00063EC00F016BEF28E8996166AF2BE168E91
:1009E000F29E0B0E3E6E63EC00F016BEF28E1D2AD8
:1009F000E5D72A6A296A600E286E800E276E21C00C
:100A00002EF020C02DF01FC02CF01EC02BF07DDC7E
:100A100001E21AE181B017D08986166AF2BE168EFD
:100A2000F29E080E3E6E63EC00F016BEF28E8996C2
:100A3000166AF2BE168EF29E0C0E3E6E63EC00F04D
:100A400016BEF28EE7D719D081B017D08986166A04
:100A5000F2BE168EF29E060E3E6E63EC00F016BEDF
:100A6000F28E8996166AF2BE168EF29E0E0E3E6EBB
:100A700063EC00F016BEF28EE7D7DBEF06F089924A
:100A800089841D6A1D50270818E38986166AF2BEFC
:100A9000168EF29E0C0E3E6E63EC00F016BEF28EC9
:100AA0008996166AF2BE168EF29E080E3E6E63ECB2
:100AB00000F016BEF28E1D2AE5D71D6A1D504F08A4
:100AC00018E38986166AF2BE168EF29E050E3E6EF9
:100AD00063EC00F016BEF28E8996166AF2BE168E90
:100AE000F29E0F0E3E6E63EC00F016BEF28E1D2AD3
:100AF000E5D781B017D08986166AF2BE168EF29EAF
:100B0000030E3E6E63EC00F016BEF28E8996166AF6
:100B1000F2BE168EF29E110E3E6E63EC00F016BE13
:100B2000F28EE7D7A1EF07F0F86AD09E078E700E1D
:100B3000D36ED350176AB8960C0EAF6EA20EAC6E81
:100B4000900EAB6E0A0E1B6E280E1A6E200E196EDA
:100B5000770E186E300E1C6E216A206A1F6A1E6A9C
:100B600022902292C150C00B0F09C16E070EB46EC5
:100B70009D8AF286C00EF212F18CBEEF00F0000EDC
:100B8000016EC250C30B0110C26E22808A848A9605
:100B90008A98166AF2BE168EF29EC80E3E6E63ECFE
:100BA00000F016BEF28E69EC01F003C026F002C020
:100BB00025F001C024F000C023F02A6A296A286ABF
:100BC0007F0E276E03C02EF002C02DF001C02CF066
:100BD00000C02BF085EC01F001E301D0DAD78A9454
:100BE0000C0E236E166AF2BE168EF29EFA0E3E6E42
:100BF00063EC00F016BEF28E232EF4D71D6A1D5052
:100C0000060835E3020E236E166AF2BE168EF29EB9
:100C1000960E3E6E63EC00F016BEF28E232EF4D7D5
:100C200069EC01F0EACF24F0E9CF23F0D89221C09B
:100C300028F020C027F01FC026F01EC025F003C0FA
:100C40002CF002C02BF001C02AF000C029F0C0EF48
:100C500001F024C0EAFF23C0E9FF03C021F002C075
:100C600020F001C01FF000C01EF01D2AC8D721C00F
:100C700026F020C025F01FC024F01EC023F02A6AF1
:100C8000296A600E286E810E276EB0D403C021F051
:100C900002C020F001C01FF000C01EF0890EE96EF6
:100CA00021C026F020C025F01FC024F01EC023F074
:100CB000040E276EB0D52A6A296A600E286E800E4F
:100CC000276E21C02EF020C02DF01FC02CF01EC0BA
:100CD0002BF085EC01F001E202E18A8601D08A88DE
:100CE000020E236E166AF2BE168EF29EFA0E3E6E4B
:100CF00063EC00F016BEF28E232EF4D71D6A1D5051
:100D00000E0826E38B84166AF2BE168EF29E010E42
:100D10003E6E63EC00F016BEF28E020E236EF80EED
:100D2000246E3ADE232EFBD78B94166AF2BE168E03
:100D3000F29E120E3E6E63EC00F016BEF28E020EB4
:100D4000236EF80E246E28DE232EFBD71D2AD7D75C
:100D50001D6A1D500E081CE38B84020E236EF80ED4
:100D6000246E1ADE232EFBD78B94166AF2BE168EE3
:100D7000F29E130E3E6E63EC00F016BEF28E020E73
:100D8000236EF80E246E08DE232EFBD71D2AE1D732
:100D900022902282899A0E0E236E166AF2BE168E59
:100DA000F29EFA0E3E6E63EC00F016BEF28E232E1B
:100DB000F4D7898A00D6020E236E166AF2BE168E0A
:100DC000F29EFA0E3E6E63EC00F016BEF28E232EFB
:100DD000F4D72A6A296A600E286E800E276E21C019
:100DE0002EF020C02DF01FC02CF01EC02BF085EC83
:100DF00001F001E24BE11D6A1D503B081CE38B82B0
:100E0000020E236EF80E246EC7DD232EFBD78B92C5
:100E1000166AF2BE168EF29E130E3E6E63EC00F062
:100E200016BEF28E020E236EF80E246EB5DD232E52
:100E3000FBD71D2AE1D71D6A1D503B0826E38B8294
:100E4000166AF2BE168EF29E020E3E6E63EC00F043
:100E500016BEF28E020E236EF80E246E9DDD232E3A
:100E6000FBD78B92166AF2BE168EF29E110E3E6E64
:100E700063EC00F016BEF28E020E236EF80E246EA6
:100E80008BDD232EFBD71D2AD7D74AD01D6A1D50D4
:100E90003B081CE38B80020E236EF80E246E7CDD73
:100EA000232EFBD78B90166AF2BE168EF29E130E7F
:100EB0003E6E63EC00F016BEF28E020E236EF80E4C
:100EC000246E6ADD232EFBD71D2AE1D71D6A1D5033
:100ED0003B0826E38B80166AF2BE168EF29E020E47
:100EE0003E6E63EC00F016BEF28E020E236EF80E1C
:100EF000246E52DD232EFBD78B90166AF2BE168E1F
:100F0000F29E110E3E6E63EC00F016BEF28E020EE3
:100F1000236EF80E246E40DD232EFBD71D2AD7D773
:100F2000899A0E0E236E166AF2BE168EF29EFA0E85
:100F30003E6E63EC00F016BEF28E232EF4D7898A43
:080F40009ED5229222D6030087
:020000040030CA
:0E00000027C83E1E008781000FC00FE00F4092
:00000001FF
;PIC18F2550
;CRC=233F  CREATED="20-dic.-17 17:16"
