:040000007EEF02F09D
:08000800046ED8CF05F0E0CF33
:1000100006F00001E9CF0CF0EACF07F0E1CF08F0DD
:10002000E2CF09F0D9CF0AF0DACF0BF0F3CF12F01C
:10003000F4CF13F0FACF14F000C00EF001C00FF0AF
:1000400002C010F003C011F09DAA2AEF00F09EBA82
:100050006AEF00F00EC000F00FC001F010C002F017
:1000600011C003F00CC0E9FF07C0EAFF078E08C00B
:10007000E1FF09C0E2FF0AC0D9FF0BC0DAFF12C0DE
:10008000F3FF13C0F4FF14C0FAFF045006C0E0FFF2
:1000900005C0D8FF10009EAAFED7ABCF17F0AECF99
:1000A00001F017A202D0AB98AB886DEF00F0EA6ABE
:1000B0003F0EE96EEF500DE0020E016E006A002E59
:1000C000FED7012EFBD7970E006E002EFED7EF2E27
:1000D000F3D712009EAA06D0DED701C01CF0040E92
:1000E0003F6EE5DF9E9A2AEF00F0000E936E010E40
:1000F000926EC150C00B0E09C16EC050C00B0709F3
:10010000C06EC08EC280A0EF02F08E0E006E26C0C0
:1001100001F025C002F0036A015209E102C001F0BA
:10012000026A080E005E015202E1006A08D0D8900F
:1001300001BE04D0023601360006F9D7019EC3EF96
:1001400002F03250D8B471D0006E3650D8B46DD0B1
:10015000002604E3810E002668E204D07F0E005ED4
:1001600064E363E033C03AF037503A1A338E378E87
:1001700035503902F4CF3CF034503802F4CF03F05C
:10018000F3CF3BF03902F3503C26F4503B22000EF3
:10019000032235503802F3503C26F4503B22000E27
:1001A000026A0322022233503902F3503B26F450F4
:1001B0000322000E022233503802F3500326F4507B
:1001C0000222000E016A012235503702F3503B260D
:1001D000F4500322000E0222012234503702F35061
:1001E0000326F4500222000E012233503702F3504E
:1001F0000226F4500122002A01BE05D03B36033608
:10020000023601360006000E3BAE0AD0032A022257
:100210000122015005E1025003E1035001E1002AEF
:100220003ABE018E3AAE019E04D0006A016A026AAB
:10023000036A120026C02DF02A502D1A2DAE05D0CB
:10024000D894D89026BED8802FD026C02DF029C0B3
:100250002EF025502E5E06E02DAE26D0D850010A95
:10026000D86E22D02AC02EF026502E5E06E02DAE8B
:100270001BD0D850010AD86E17D02BC02EF02750B3
:100280002E5E06E02DAE10D0D850010AD86E0CD0EC
:100290002CC02EF028502E5E06E02DAE05D0D85092
:1002A000010AD86E01D0D890EAEF02F03250B608B9
:1002B000326E036A33C036F0338ED8903332343224
:1002C00035320332023201320032322EF6D736AEE8
:1002D0000BD0001E011E021E031E002AD8B4012AE4
:1002E000D8B4022AD8B4032AE4EF01F0D8B203D07C
:1002F000EA6A3A0EE96E006A016A026A036A3A6AB9
:100300003B6A3C6A3D6A39503810371036102CE091
:10031000200E3E6ED89032363336343635363A3685
:100320003B363C363D3639503D5C08E138503C5C4C
:1003300005E137503B5C02E136503A5C0FE3365042
:100340003A5E3750D8A0373C3B5E3850D8A0383C96
:100350003C5E3950D8A0393C3D5ED880003601362D
:10036000023603363E2ED6D73AC0EFFF3BC0ECFF35
:100370003CC0ECFF3DC0ECFF1200E9502A6E295052
:100380002C6E19E028C035F027C034F026C033F0B9
:1003900025C032F0396A386A200E376E820E366E0A
:1003A000D0DE03C028F002C027F001C026F000C054
:1003B00025F02C2EE7D728C035F027C034F026C012
:1003C00033F025C032F072D703C028F002C027F006
:1003D00001C026F000C025F028AE0DD02A062A8ADA
:1003E000251E261E271E281E252AD8B4262AD8B444
:1003F000272AD8B4282A3B0E316E9A0E306ECA0EC8
:100400002F6E2E6A0A0E2C6E2950D8B42A2AD88252
:10041000EA6A250EE96E28C035F027C034F026C000
:1004200033F025C032F031C039F030C038F02FC081
:1004300037F02EC036F05ADF015000520FE1292864
:100440002C5C0CE02A500CE00F0B2C5C01E03BE232
:100450002ABE39D02ABC04D0200E30D0200E2A1655
:100460002AAA0DD02A9A2950D8A42A0600502A6E0A
:100470002D0E9EA8FED7AD6E2A50006E2A6A295016
:100480002C5C0BE100502A6E2E0E9EA8FED7AD6E9E
:100490002A50006E200E2A16000E300E2AAA0ED008
:1004A0002A9A2950D8A42A0600502A6E2D0E9EA8FA
:1004B000FED7AD6E2A50006E2A6A300E002600501C
:1004C0009EA8FED7AD6ED89231C035F030C034F062
:1004D0002FC033F02EC032F0396A386A376A0A0EFC
:1004E000366E04DF03C031F002C030F001C02FF0DF
:1004F00000C02EF02C2E8BD70AEF03F0F86AD09EA6
:10050000078E700ED36ED350176AB8960C0EAF6E6E
:10051000A20EAC6E900EAB6E0A0E1B6E280E1A6EFB
:10052000200E196E770E186E300E1C6EC150C00B67
:100530000F09C16E070EB46E9D8AC00EF212D5D59A
:100540001E6A1D6A226A216A206A1F6A000E016EF5
:10055000C250C30B0110C26E246A236A166AF2BE2F
:10056000168EF29E050E3F6EA2DD16BEF28EC28280
:10057000C2B2FED7C3CF1DF0C4CF1EF01EC026F0FE
:100580001DC025F0C2D51BC035F01AC034F019C00B
:1005900033F018C032F003C039F002C038F001C0A7
:1005A00037F000C036F0CDDD03C022F002C021F0EC
:1005B00001C020F000C01FF0286A276A266A7F0E5B
:1005C000256E22C02CF021C02BF020C02AF01FC0C5
:1005D00029F030D602E38A8201D08A921C50310879
:1005E00002E18A8403D0300E1C6E8A942350C8081E
:1005F00012E1245210E1246A236A890EE96E22C0B6
:1006000028F021C027F020C026F01FC025F0040EDE
:10061000296EB3D68A72232AD8B4242A9FD703001E
:020000040030CA
:0E00000027C83E1E008781000FC00FE00F4092
:00000001FF
;PIC18F2550
;CRC=B59C  CREATED="23-nov.-17 16:24"
