:0400000092EF04F087
:08000800046ED8CF05F0E0CF33
:1000100006F00001E9CF0CF0EACF07F0E1CF08F0DD
:10002000E2CF09F0D9CF0AF0DACF0BF0F3CF12F01C
:10003000F4CF13F0FACF14F000C00EF001C00FF0AF
:1000400002C010F003C011F09DAA2AEF00F09EBA82
:100050006AEF00F00EC000F00FC001F010C002F017
:1000600011C003F00CC0E9FF07C0EAFF078E08C00B
:10007000E1FF09C0E2FF0AC0D9FF0BC0DAFF12C0DE
:10008000F3FF13C0F4FF14C0FAFF045006C0E0FFF2
:1000900005C0D8FF10009EAAFED7ABCF17F0AECF99
:1000A00001F017A202D0AB98AB886DEF00F0EA6ABE
:1000B0003C0EE96EEF500DE0020E016E006A002E5C
:1000C000FED7012EFBD7970E006E002EFED7EF2E27
:1000D000F3D712009EAA06D0DED701C01CF0040E92
:1000E0003C6EE5DF9E9A2AEF00F0800E936E010EC3
:1000F000926E898A8996000E946E8B6AC150C00BED
:100100000E09C16EC050C00B0709C06EC08EC28000
:10011000B6EF04F08E0E006E23C001F022C002F094
:10012000036A015209E102C001F0026A080E005E92
:10013000015202E1006A08D0D89001BE04D0023614
:1001400001360006F9D7019E29EF01F02F50D8B4EF
:1001500071D0006E3350D8B46DD0002604E3810E08
:10016000002668E204D07F0E005E64E363E030C0E6
:1001700037F03450371A308E348E32503602F4CF86
:1001800039F031503502F4CF03F0F3CF38F03602B6
:10019000F3503926F4503822000E03223250350233
:1001A000F3503926F4503822000E026A032202224C
:1001B00030503602F3503826F4500322000E02224B
:1001C00030503502F3500326F4500222000E016A2B
:1001D000012232503402F3503826F4500322000E2C
:1001E0000222012231503402F3500326F45002223D
:1001F000000E012230503402F3500226F450012246
:10020000002A01BE05D03836033602360136000614
:10021000000E38AE0AD0032A02220122015005E165
:10022000025003E1035001E1002A37BE018E37AED0
:10023000019E04D0006A016A026A036A1200C28247
:10024000C2B2FED7C4CF03F0C3CF22F0C4CF23F095
:1002500061D71BC032F01AC031F019C030F018C09D
:100260002FF003C036F002C035F001C034F000C0FA
:1002700033F06CDF120027C02EF02B502E1A2EAE5A
:1002800005D0D894D89027BED8802FD027C02EF084
:100290002AC02FF026502F5E06E02EAE26D0D85072
:1002A000010AD86E22D02BC02FF027502F5E06E017
:1002B0002EAE1BD0D850010AD86E17D02CC02FF00C
:1002C00028502F5E06E02EAE10D0D850010AD86E0E
:1002D0000CD02DC02FF029502F5E06E02EAE05D099
:1002E000D850010AD86E01D0D890DDEF04F0800E0E
:1002F000D8B2291A2E6A2F6A25C02DF029502D1A3E
:100300002450D8B4DCD02C6E006E2850D8B4E0D085
:100310002C5ED8B481D03DE329C032F0328E2AC0A1
:1003200031F02BC030F02F6AD89032323132303277
:100330002F322C2EF8D72DAE03D02E80DDD02E906C
:100340002C902E88EA6A270EE96EE9D02E982DBEF1
:100350000AD02CA013D03232313230322F32002A60
:10036000D8B4C5D00BD032BE0CD0D8902F36303692
:10037000313632360006D8B4BAD0F5D72E8C6BD0D1
:100380002E9C25C02DF025AE02D0328EA9D0329EF3
:10039000A7D028C02CF028C000F024502C5E25C027
:1003A00032F0328E26C031F027C030F02F6AD8905C
:1003B0003232313230322F322C2EF8D72DAE03D0DC
:1003C0002E829AD02E922C902E8AEA6A2B0EE96EFB
:1003D000A6D02E9A2DBE0AD02CA013D032323132A4
:1003E00030322F32002AD8B482D00BD032BE0CD09B
:1003F000D8902F363036313632360006D8B477D022
:10040000F5D72E8E28D02E9E29C02DF029AE02D0F1
:10041000328E66D0329E64D029C032F0328E2AC02D
:1004200031F02BC030F02DAE04D0329E2E8464D03B
:100430002E942F6A2C90EA6A270EE96E70D02DBE9A
:100440001CD025C02DF02CA006D0323231323032F3
:100450002F32002A4CE02FAE0BD0302A09E1312A8E
:1004600007E1322A05E1323231323032002A3FE0F0
:100470002EBC86D72EBEC7D71CD0800E321A32AE05
:1004800004D03AD029C02DF00AD025C02DF0325228
:1004900006E1315204E1305202E1006A21D032BE5D
:1004A00008D0D8902F36303631363236002EF7D776
:1004B0001ED02DAE02D0328E13D0329E11D028C065
:1004C00000F029C032F02AC031F02BC030F008D043
:1004D00024C000F025C032F026C031F027C030F033
:1004E00032C001F031C002F030C003F034D0006AF5
:1004F000016A026A036A2FD02F6A301E311E321E33
:100500002F1E2F2A05E1302A03E1312A01E1322A88
:100510002EB015D72EB256D72EB48AD7B3D7EF50F8
:10052000302605E3312A03E1322AD8B42C80ED527B
:10053000EF50312603E3322AD8B42C80ED52EF502D
:10054000EFBE01D0800A3226D8B02C802EB8FED65D
:100550002EBA3FD774D71CEF05F02250D8B4A5D0DF
:100560002E6E2650D8B4A1D02E5E05E37F0E2E2627
:10057000D8B09BD006D0810E2E5ED8A096D0D8B42D
:1005800094D02EC000F0016A026A036A2D6A23C06B
:100590002CF02C8E24C02BF025C02AF0190E2E6EC4
:1005A00029502A5E0DE2010E2B5E0AE22C5E08E263
:1005B0002D5E06E22D2A2C2A2B2A29502A2628D005
:1005C00028502B5E12E2010E2C5E0FE22D5E0DE232
:1005D0002D2A2C2A28502B2629502A2619E32B2A8B
:1005E00017E12C2A15E12D2A13D0275080092C5E03
:1005F0000EE2010E2D5E0BE22D2A275080092C26DB
:1006000028502B26E9E32C2AE7E12D2AE5D70380A1
:100610002E2E01D00BD0D8902A362B362C362D36E4
:10062000D8900336023601362F36BAD72FA006D01F
:10063000D8900132023203322F3202D0000635E068
:100640002FBE1ED0D8902A362B362C362D36295068
:100650002A5E07E2010E2B5E04E22C5E02E22D5EB2
:100660001AE328502B5E05E2010E2C5E02E22D5E9D
:1006700012E3275080092C5E03E2010E2D5E0BE38E
:10068000032A09E1022A07E1012A05E1002A0DE017
:1006900001320232033223C02EF027502E1A2EAE22
:1006A00002D0018E06D0019E04D0006A016A026A5F
:1006B000036A39EF05F02F50B6082F6E036A30C079
:1006C00033F0308ED890303231323232033202324F
:1006D000013200322F2EF6D733AE0BD0001E011E92
:1006E000021E031E002AD8B4012AD8B4022AD8B4A4
:1006F000032AE9EF03F0D8B203D0EA6A370EE96EB5
:10070000006A016A026A036A376A386A396A3A6AB1
:1007100036503510341033102CE0200E3B6ED8903C
:100720002F363036313632363736383639363A3675
:1007300036503A5C08E13550395C05E13450385C9C
:1007400002E13350375C0FE33350375E3450D8A0AA
:10075000343C385E3550D8A0353C395E3650D8A090
:10076000363C3A5ED88000360136023603363B2EE0
:10077000D6D737C0EFFF38C0ECFF39C0ECFF3AC026
:10078000ECFF1200E950276E2650296E19E025C0B3
:1007900032F024C031F023C030F022C02FF0366A8E
:1007A000356A200E346E820E336ED0DC03C025F025
:1007B00002C024F001C023F000C022F0292EE7D7A8
:1007C00025C032F024C031F023C030F022C02FF019
:1007D00072D703C025F002C024F001C023F000C08E
:1007E00022F025AE0DD02706278A221E231E241EA6
:1007F000251E222AD8B4232AD8B4242AD8B4252ADC
:100800003B0E2E6E9A0E2D6ECA0E2C6E2B6A0A0EA1
:10081000296E2650D8B4272AD882EA6A220EE96EB9
:1008200025C032F024C031F023C030F022C02FF0B8
:100830002EC036F02DC035F02CC034F02BC033F074
:100840005ADF015000520FE12628295C0CE02750A6
:100850000CE00F0B295C01E03BE227BE39D027BC3E
:1008600004D0200E30D0200E271627AA0DD0279AAC
:100870002650D8A427060050276E2D0E9EA8FED71E
:10088000AD6E2750006E276A2650295C0BE10050A0
:10089000276E2E0E9EA8FED7AD6E2750006E200E3E
:1008A0002716000E300E27AA0ED0279A2650D8A45D
:1008B00027060050276E2D0E9EA8FED7AD6E27503E
:1008C000006E276A300E002600509EA8FED7AD6E3F
:1008D000D8922EC032F02DC031F02CC030F02BC099
:1008E0002FF0366A356A346A0A0E336E04DF03C0AD
:1008F0002EF002C02DF001C02CF000C02BF0292EEC
:100900008BD74EEF05F0090E235E0BE3EA6A230E48
:10091000E96ED890EF32EF5004E001D00000EF2EE6
:10092000FDD71200F86AD09E078E700ED36ED3509A
:10093000176AB8960C0EAF6EA20EAC6E900EAB6E30
:100940000A0E1B6E280E1A6E200E196E770E186E88
:10095000300E1C6EC150C00B0F09C16E070EB46E75
:100960008A849D8AC00EF21275EF00F0000E016EAF
:10097000C250C30B0110C26E166AF2BE168EF29EF2
:10098000C80E3C6E57EC00F016BEF28E58DC03C069
:1009900025F002C024F001C023F000C022F0296A33
:1009A000286A276A7F0E266E03C02DF002C02CF045
:1009B00001C02BF000C02AF05ED401E301D0DCD7E7
:1009C0008A94040E226E166AF2BE168EF29EFA0EFB
:1009D0003C6E57EC00F016BEF28E222EF4D7216A40
:1009E000206A1F6A1E6A1D6A1D50040833E3020E46
:1009F000226E166AF2BE168EF29E960E3C6E57EC72
:100A000000F016BEF28E222EF4D719DCEACF23F0C6
:100A1000E9CF22F0D89221C027F020C026F01FC0D5
:100A200025F01EC024F003C02BF002C02AF001C044
:100A300029F000C028F05BD423C0EAFF22C0E9FF00
:100A400003C021F002C020F001C01FF000C01EF062
:100A50001D2ACAD721C025F020C024F01FC023F0D2
:100A60001EC022F0296A286A200E276E810E266E8B
:100A700074D503C021F002C020F001C01FF000C0F7
:100A80001EF0890EE96E21C025F020C024F01FC0A1
:100A900023F01EC022F0040E266E74D6040E226EC1
:100AA000166AF2BE168EF29EFA0E3C6E57EC00F0FD
:100AB00016BEF28E222EF4D71D6A1D500E0826E3B4
:100AC0008B84166AF2BE168EF29E010E3C6E57ECB7
:100AD00000F016BEF28E020E226EF80E236E13DFA9
:100AE000222EFBD78B94166AF2BE168EF29E120E41
:100AF0003C6E57EC00F016BEF28E020E226EF80E1F
:100B0000236E01DF222EFBD71D2AD7D71D6A1D5069
:100B10000E081CE38B84020E226EF80E236EF3DEA9
:100B2000222EFBD78B94166AF2BE168EF29E130EFF
:100B30003C6E57EC00F016BEF28E020E226EF80EDE
:100B4000236EE1DE222EFBD71D2AE1D7899A040EFF
:100B5000226E166AF2BE168EF29EFA0E3C6E57ECAC
:100B600000F016BEF28E222EF4D7898A89828994EB
:100B70001D6A1D50C70818E38986166AF2BE168ED4
:100B8000F29E060E3C6E57EC00F016BEF28E899671
:100B9000166AF2BE168EF29E0E0E3C6E57EC00F0F8
:100BA00016BEF28E1D2AE5D7899289841D6A1D50D2
:100BB000950818E38986166AF2BE168EF29E050E17
:100BC0003C6E57EC00F016BEF28E8996166AF2BEA5
:100BD000168EF29E0F0E3C6E57EC00F016BEF28E93
:100BE0001D2AE5D71D6A1D503B081CE38B82020EAF
:100BF000226EF80E236E87DE222EFBD78B92166AAA
:100C0000F2BE168EF29E130E3C6E57EC00F016BE2E
:100C1000F28E020E226EF80E236E75DE222EFBD7A8
:100C20001D2AE1D71D6A1D503B0826E38B82166AF8
:100C3000F2BE168EF29E020E3C6E57EC00F016BE0F
:100C4000F28E020E226EF80E236E5DDE222EFBD790
:100C50008B92166AF2BE168EF29E110E3C6E57EC07
:100C600000F016BEF28E020E226EF80E236E4BDEE0
:100C7000222EFBD71D2AD7D71D6A1D503B081CE327
:100C80008B80020E226EF80E236E3DDE222EFBD7E5
:100C90008B90166AF2BE168EF29E130E3C6E57ECC7
:100CA00000F016BEF28E020E226EF80E236E2BDEC0
:100CB000222EFBD71D2AE1D71D6A1D503B0826E3D3
:100CC0008B80166AF2BE168EF29E020E3C6E57ECB8
:100CD00000F016BEF28E020E226EF80E236E13DEA8
:100CE000222EFBD78B90166AF2BE168EF29E110E44
:100CF0003C6E57EC00F016BEF28E020E226EF80E1D
:100D0000236E01DE222EFBD71D2AD7D78A8434D644
:020D10000300DE
:020000040030CA
:0E00000027C83E1E008781000FC00FE00F4092
:00000001FF
;PIC18F2550
;CRC=C194  CREATED="18-dic.-17 23:14"
